{
  "contractName": "Coso",
  "abi": [
    {
      "constant": true,
      "inputs": [],
      "name": "owner",
      "outputs": [
        {
          "name": "",
          "type": "address"
        }
      ],
      "payable": false,
      "stateMutability": "view",
      "type": "function"
    }
  ],
  "bytecode": "0x6080604052336000806101000a81548173ffffffffffffffffffffffffffffffffffffffff021916908373ffffffffffffffffffffffffffffffffffffffff16021790555034801561005057600080fd5b5060e38061005f6000396000f3fe6080604052600436106039576000357c0100000000000000000000000000000000000000000000000000000000900480638da5cb5b14603e575b600080fd5b348015604957600080fd5b5060506092565b604051808273ffffffffffffffffffffffffffffffffffffffff1673ffffffffffffffffffffffffffffffffffffffff16815260200191505060405180910390f35b6000809054906101000a900473ffffffffffffffffffffffffffffffffffffffff168156fea165627a7a72305820a1b11d1e57f7731653931bcc30463fe2a42c865b6409483be271bbffe7693ca70029",
  "source": "// SPDX-License-Identifier: MIT\npragma solidity >=0.4.22 <0.9.0;\n\ncontract Coso {\n  address public owner = msg.sender;\n\n}\n",
  "sourcePath": "/Users/alejandrodejesus/Desktop/solidity/prrwerwe/contracts/Coso.sol",
  "compiler": {
    "name": "solc",
    "version": "0.5.1+commit.c8a2cb62.Emscripten.clang"
  },
  "schemaVersion": "3.0.22",
  "updatedAt": "2021-09-20T00:45:52.016Z",
  "devdoc": {
    "methods": {}
  },
  "userdoc": {
    "methods": {}
  }
}