{
  "contractName": "TasksContract",
  "abi": [
    {
      "inputs": [],
      "stateMutability": "nonpayable",
      "type": "constructor"
    },
    {
      "anonymous": false,
      "inputs": [
        {
          "indexed": false,
          "internalType": "string",
          "name": "_title",
          "type": "string"
        },
        {
          "indexed": false,
          "internalType": "string",
          "name": "_description",
          "type": "string"
        }
      ],
      "name": "TaskCreated",
      "type": "event"
    },
    {
      "anonymous": false,
      "inputs": [
        {
          "indexed": false,
          "internalType": "uint256",
          "name": "id",
          "type": "uint256"
        },
        {
          "indexed": false,
          "internalType": "bool",
          "name": "isDone",
          "type": "bool"
        }
      ],
      "name": "TaskToggleDone",
      "type": "event"
    },
    {
      "inputs": [],
      "name": "taskCount",
      "outputs": [
        {
          "internalType": "uint256",
          "name": "",
          "type": "uint256"
        }
      ],
      "stateMutability": "view",
      "type": "function",
      "constant": true
    },
    {
      "inputs": [
        {
          "internalType": "uint256",
          "name": "",
          "type": "uint256"
        }
      ],
      "name": "tasks",
      "outputs": [
        {
          "internalType": "string",
          "name": "title",
          "type": "string"
        },
        {
          "internalType": "string",
          "name": "description",
          "type": "string"
        },
        {
          "internalType": "uint256",
          "name": "id",
          "type": "uint256"
        },
        {
          "internalType": "uint256",
          "name": "date",
          "type": "uint256"
        },
        {
          "internalType": "bool",
          "name": "isDone",
          "type": "bool"
        }
      ],
      "stateMutability": "view",
      "type": "function",
      "constant": true
    },
    {
      "inputs": [
        {
          "internalType": "string",
          "name": "_title",
          "type": "string"
        },
        {
          "internalType": "string",
          "name": "_description",
          "type": "string"
        }
      ],
      "name": "addTask",
      "outputs": [],
      "stateMutability": "nonpayable",
      "type": "function"
    },
    {
      "inputs": [
        {
          "internalType": "uint256",
          "name": "_id",
          "type": "uint256"
        }
      ],
      "name": "toggleTask",
      "outputs": [],
      "stateMutability": "nonpayable",
      "type": "function"
    }
  ],
  "bytecode": "0x60806040526000805534801561001457600080fd5b5061008f6040518060400160405280600781526020017f7072696d657261000000000000000000000000000000000000000000000000008152506040518060400160405280601381526020017f7072696d657261206465736372697074696f6e0000000000000000000000000081525061009460201b60201c565b610307565b6040518060a00160405280838152602001828152602001600054815260200142815260200160001515815250600160008054815260200190815260200160002060008201518160000190805190602001906100f0929190610262565b50602082015181600101908051906020019061010d929190610262565b50604082015181600201556060820151816003015560808201518160040160006101000a81548160ff021916908315150217905550905050600160008082825401925050819055507fe04b238473f76560b59321a44de66c30d1805378858d062d20174c0ce97d40a88282604051808060200180602001838103835285818151815260200191508051906020019080838360005b838110156101bc5780820151818401526020810190506101a1565b50505050905090810190601f1680156101e95780820380516001836020036101000a031916815260200191505b50838103825284818151815260200191508051906020019080838360005b83811015610222578082015181840152602081019050610207565b50505050905090810190601f16801561024f5780820380516001836020036101000a031916815260200191505b5094505050505060405180910390a15050565b828054600181600116156101000203166002900490600052602060002090601f016020900481019282601f106102a357805160ff19168380011785556102d1565b828001600101855582156102d1579182015b828111156102d05782518255916020019190600101906102b5565b5b5090506102de91906102e2565b5090565b61030491905b808211156103005760008160009055506001016102e8565b5090565b90565b6109eb806103166000396000f3fe608060405234801561001057600080fd5b506004361061004c5760003560e01c8063613137a4146100515780638d9776721461007f578063b37b1000146101ab578063b6cb58a5146102fd575b600080fd5b61007d6004803603602081101561006757600080fd5b810190808035906020019092919050505061031b565b005b6100ab6004803603602081101561009557600080fd5b8101908080359060200190929190505050610598565b60405180806020018060200186815260200185815260200184151515158152602001838103835288818151815260200191508051906020019080838360005b838110156101055780820151818401526020810190506100ea565b50505050905090810190601f1680156101325780820380516001836020036101000a031916815260200191505b50838103825287818151815260200191508051906020019080838360005b8381101561016b578082015181840152602081019050610150565b50505050905090810190601f1680156101985780820380516001836020036101000a031916815260200191505b5097505050505050505060405180910390f35b6102fb600480360360408110156101c157600080fd5b81019080803590602001906401000000008111156101de57600080fd5b8201836020820111156101f057600080fd5b8035906020019184600183028401116401000000008311171561021257600080fd5b91908080601f016020809104026020016040519081016040528093929190818152602001838380828437600081840152601f19601f8201169050808301925050505050505091929192908035906020019064010000000081111561027557600080fd5b82018360208201111561028757600080fd5b803590602001918460018302840111640100000000831117156102a957600080fd5b91908080601f016020809104026020016040519081016040528093929190818152602001838380828437600081840152601f19601f82011690508083019250505050505050919291929050505061070b565b005b6103056108d9565b6040518082815260200191505060405180910390f35b6103236108df565b600160008381526020019081526020016000206040518060a0016040529081600082018054600181600116156101000203166002900480601f0160208091040260200160405190810160405280929190818152602001828054600181600116156101000203166002900480156103da5780601f106103af576101008083540402835291602001916103da565b820191906000526020600020905b8154815290600101906020018083116103bd57829003601f168201915b50505050508152602001600182018054600181600116156101000203166002900480601f01602080910402602001604051908101604052809291908181526020018280546001816001161561010002031660029004801561047c5780601f106104515761010080835404028352916020019161047c565b820191906000526020600020905b81548152906001019060200180831161045f57829003601f168201915b5050505050815260200160028201548152602001600382015481526020016004820160009054906101000a900460ff1615151515815250509050806080015115816080019015159081151581525050806001600084815260200190815260200160002060008201518160000190805190602001906104fb929190610910565b506020820151816001019080519060200190610518929190610910565b50604082015181600201556060820151816003015560808201518160040160006101000a81548160ff0219169083151502179055509050507f389dee00d487dd41dd5bf0f43eeaa5b663b3af022d52368df89d388150295f4582600160405180838152602001821515151581526020019250505060405180910390a15050565b6001602052806000526040600020600091509050806000018054600181600116156101000203166002900480601f0160208091040260200160405190810160405280929190818152602001828054600181600116156101000203166002900480156106445780601f1061061957610100808354040283529160200191610644565b820191906000526020600020905b81548152906001019060200180831161062757829003601f168201915b505050505090806001018054600181600116156101000203166002900480601f0160208091040260200160405190810160405280929190818152602001828054600181600116156101000203166002900480156106e25780601f106106b7576101008083540402835291602001916106e2565b820191906000526020600020905b8154815290600101906020018083116106c557829003601f168201915b5050505050908060020154908060030154908060040160009054906101000a900460ff16905085565b6040518060a0016040528083815260200182815260200160005481526020014281526020016000151581525060016000805481526020019081526020016000206000820151816000019080519060200190610767929190610910565b506020820151816001019080519060200190610784929190610910565b50604082015181600201556060820151816003015560808201518160040160006101000a81548160ff021916908315150217905550905050600160008082825401925050819055507fe04b238473f76560b59321a44de66c30d1805378858d062d20174c0ce97d40a88282604051808060200180602001838103835285818151815260200191508051906020019080838360005b83811015610833578082015181840152602081019050610818565b50505050905090810190601f1680156108605780820380516001836020036101000a031916815260200191505b50838103825284818151815260200191508051906020019080838360005b8381101561089957808201518184015260208101905061087e565b50505050905090810190601f1680156108c65780820380516001836020036101000a031916815260200191505b5094505050505060405180910390a15050565b60005481565b6040518060a00160405280606081526020016060815260200160008152602001600081526020016000151581525090565b828054600181600116156101000203166002900490600052602060002090601f016020900481019282601f1061095157805160ff191683800117855561097f565b8280016001018555821561097f579182015b8281111561097e578251825591602001919060010190610963565b5b50905061098c9190610990565b5090565b6109b291905b808211156109ae576000816000905550600101610996565b5090565b9056fea2646970667358221220002a24285be371350725b364305dbe8cf66a30e5a4cf644ec1a063af6e072daa64736f6c63430006010033",
  "source": "// SPDX-License-Identifier: MIT\npragma solidity >=0.4.22 <0.9.0;\n\ncontract TasksContract {\n\n  uint public taskCount = 0;\n\n  mapping(uint => Task) public tasks;\n\n  constructor () public {\n    addTask(\"primera\",\"primera description\");\n  }\n\n  struct Task {\n    string title;\n    string description;\n    uint id;\n    uint date;\n    bool isDone;\n  }\n\n  event TaskCreated(\n      string _title,\n      string _description\n  );\n\n  event TaskToggleDone(uint id, bool isDone);\n\n  function addTask(string memory _title, string memory _description) public {\n    tasks[taskCount] = Task(_title,_description,taskCount,block.timestamp, false);\n    taskCount += 1;\n    emit TaskCreated(_title, _description);\n  }\n\n  function toggleTask(uint _id) public {\n    Task memory _task = tasks[_id];\n    _task.isDone = !_task.isDone;\n    tasks[_id] = _task;\n    emit TaskToggleDone(_id, true);\n  }\n}\n",
  "sourcePath": "/Users/alejandrodejesus/Desktop/solidity/todoSolidity/contracts/TasksContract.sol",
  "compiler": {
    "name": "solc",
    "version": "0.6.1+commit.e6f7d5a4.Emscripten.clang"
  },
  "schemaVersion": "3.0.22",
  "updatedAt": "2021-09-21T20:31:55.340Z",
  "networkType": "ethereum",
  "devdoc": {
    "methods": {}
  },
  "userdoc": {
    "methods": {}
  }
}